{
  "_format": "hh-sol-artifact-1",
  "contractName": "HodlBank",
  "sourceName": "contracts/HodlBank.sol",
  "abi": [
    {
      "inputs": [
        {
          "internalType": "address[]",
          "name": "_allowedTokens",
          "type": "address[]"
        }
      ],
      "stateMutability": "nonpayable",
      "type": "constructor"
    },
    {
      "anonymous": false,
      "inputs": [
        {
          "indexed": true,
          "internalType": "address",
          "name": "previousOwner",
          "type": "address"
        },
        {
          "indexed": true,
          "internalType": "address",
          "name": "newOwner",
          "type": "address"
        }
      ],
      "name": "OwnershipTransferred",
      "type": "event"
    },
    {
      "anonymous": false,
      "inputs": [
        {
          "indexed": false,
          "internalType": "uint256",
          "name": "_strategyId",
          "type": "uint256"
        }
      ],
      "name": "StrategyDeployed",
      "type": "event"
    },
    {
      "inputs": [
        {
          "internalType": "address",
          "name": "_tokenAddr",
          "type": "address"
        }
      ],
      "name": "addAllowedToken",
      "outputs": [],
      "stateMutability": "nonpayable",
      "type": "function"
    },
    {
      "inputs": [
        {
          "internalType": "uint256",
          "name": "",
          "type": "uint256"
        }
      ],
      "name": "allowedTokens",
      "outputs": [
        {
          "internalType": "address",
          "name": "",
          "type": "address"
        }
      ],
      "stateMutability": "view",
      "type": "function"
    },
    {
      "inputs": [
        {
          "internalType": "string",
          "name": "_name",
          "type": "string"
        },
        {
          "components": [
            {
              "internalType": "address",
              "name": "token",
              "type": "address"
            },
            {
              "internalType": "uint256",
              "name": "ratio",
              "type": "uint256"
            },
            {
              "internalType": "uint256",
              "name": "value",
              "type": "uint256"
            }
          ],
          "internalType": "struct HodlBank.StrategyRatio[]",
          "name": "_ratios",
          "type": "tuple[]"
        },
        {
          "internalType": "uint256",
          "name": "_depositTime",
          "type": "uint256"
        }
      ],
      "name": "deployStrategy",
      "outputs": [
        {
          "internalType": "uint256",
          "name": "strategyId",
          "type": "uint256"
        }
      ],
      "stateMutability": "payable",
      "type": "function"
    },
    {
      "inputs": [],
      "name": "getAllowedTokens",
      "outputs": [
        {
          "internalType": "address[]",
          "name": "",
          "type": "address[]"
        }
      ],
      "stateMutability": "view",
      "type": "function"
    },
    {
      "inputs": [],
      "name": "getStrategies",
      "outputs": [
        {
          "components": [
            {
              "internalType": "address",
              "name": "owner",
              "type": "address"
            },
            {
              "internalType": "string",
              "name": "name",
              "type": "string"
            },
            {
              "internalType": "uint256",
              "name": "strategyId",
              "type": "uint256"
            },
            {
              "internalType": "uint256",
              "name": "createdOn",
              "type": "uint256"
            },
            {
              "internalType": "uint256",
              "name": "dueOn",
              "type": "uint256"
            },
            {
              "internalType": "uint256",
              "name": "nextDividend",
              "type": "uint256"
            },
            {
              "internalType": "uint256",
              "name": "initialAmount",
              "type": "uint256"
            },
            {
              "components": [
                {
                  "internalType": "address",
                  "name": "token",
                  "type": "address"
                },
                {
                  "internalType": "uint256",
                  "name": "ratio",
                  "type": "uint256"
                },
                {
                  "internalType": "uint256",
                  "name": "value",
                  "type": "uint256"
                }
              ],
              "internalType": "struct HodlBank.StrategyRatio[]",
              "name": "ratios",
              "type": "tuple[]"
            }
          ],
          "internalType": "struct HodlBank.Strategy[]",
          "name": "",
          "type": "tuple[]"
        }
      ],
      "stateMutability": "view",
      "type": "function"
    },
    {
      "inputs": [
        {
          "internalType": "address",
          "name": "",
          "type": "address"
        }
      ],
      "name": "isAllowedToken",
      "outputs": [
        {
          "internalType": "bool",
          "name": "",
          "type": "bool"
        }
      ],
      "stateMutability": "view",
      "type": "function"
    },
    {
      "inputs": [
        {
          "internalType": "uint256",
          "name": "x",
          "type": "uint256"
        },
        {
          "internalType": "uint256",
          "name": "y",
          "type": "uint256"
        },
        {
          "internalType": "uint256",
          "name": "z",
          "type": "uint256"
        }
      ],
      "name": "mulDiv",
      "outputs": [
        {
          "internalType": "uint256",
          "name": "",
          "type": "uint256"
        }
      ],
      "stateMutability": "pure",
      "type": "function"
    },
    {
      "inputs": [],
      "name": "owner",
      "outputs": [
        {
          "internalType": "address",
          "name": "",
          "type": "address"
        }
      ],
      "stateMutability": "view",
      "type": "function"
    },
    {
      "inputs": [
        {
          "internalType": "address",
          "name": "",
          "type": "address"
        },
        {
          "internalType": "uint256",
          "name": "",
          "type": "uint256"
        }
      ],
      "name": "ownerToStrategy",
      "outputs": [
        {
          "internalType": "uint256",
          "name": "",
          "type": "uint256"
        }
      ],
      "stateMutability": "view",
      "type": "function"
    },
    {
      "inputs": [],
      "name": "quoter",
      "outputs": [
        {
          "internalType": "contract IQuoter",
          "name": "",
          "type": "address"
        }
      ],
      "stateMutability": "view",
      "type": "function"
    },
    {
      "inputs": [],
      "name": "renounceOwnership",
      "outputs": [],
      "stateMutability": "nonpayable",
      "type": "function"
    },
    {
      "inputs": [
        {
          "internalType": "uint256",
          "name": "",
          "type": "uint256"
        }
      ],
      "name": "strategies",
      "outputs": [
        {
          "internalType": "address",
          "name": "owner",
          "type": "address"
        },
        {
          "internalType": "string",
          "name": "name",
          "type": "string"
        },
        {
          "internalType": "uint256",
          "name": "strategyId",
          "type": "uint256"
        },
        {
          "internalType": "uint256",
          "name": "createdOn",
          "type": "uint256"
        },
        {
          "internalType": "uint256",
          "name": "dueOn",
          "type": "uint256"
        },
        {
          "internalType": "uint256",
          "name": "nextDividend",
          "type": "uint256"
        },
        {
          "internalType": "uint256",
          "name": "initialAmount",
          "type": "uint256"
        }
      ],
      "stateMutability": "view",
      "type": "function"
    },
    {
      "inputs": [
        {
          "internalType": "uint256",
          "name": "",
          "type": "uint256"
        }
      ],
      "name": "strategyToOwner",
      "outputs": [
        {
          "internalType": "address",
          "name": "",
          "type": "address"
        }
      ],
      "stateMutability": "view",
      "type": "function"
    },
    {
      "inputs": [
        {
          "internalType": "address",
          "name": "newOwner",
          "type": "address"
        }
      ],
      "name": "transferOwnership",
      "outputs": [],
      "stateMutability": "nonpayable",
      "type": "function"
    },
    {
      "inputs": [],
      "name": "uniswapRouter",
      "outputs": [
        {
          "internalType": "contract IUniswapRouter",
          "name": "",
          "type": "address"
        }
      ],
      "stateMutability": "view",
      "type": "function"
    },
    {
      "inputs": [
        {
          "internalType": "uint256",
          "name": "_strategyId",
          "type": "uint256"
        }
      ],
      "name": "withdrawStrategy",
      "outputs": [],
      "stateMutability": "nonpayable",
      "type": "function"
    }
  ],
  "bytecode": "0x60806040523480156200001157600080fd5b5060405162003ae538038062003ae58339818101604052810190620000379190620003ae565b620000576200004b6200017b60201b60201c565b6200018360201b60201c565b60008151116200009e576040517f08c379a000000000000000000000000000000000000000000000000000000000815260040162000095906200041a565b60405180910390fd5b8060059080519060200190620000b692919062000247565b5060005b8151811015620001735760016004600084848151811062000104577f4e487b7100000000000000000000000000000000000000000000000000000000600052603260045260246000fd5b602002602001015173ffffffffffffffffffffffffffffffffffffffff1673ffffffffffffffffffffffffffffffffffffffff16815260200190815260200160002060006101000a81548160ff02191690831515021790555080806200016a9062000519565b915050620000ba565b505062000619565b600033905090565b60008060009054906101000a900473ffffffffffffffffffffffffffffffffffffffff169050816000806101000a81548173ffffffffffffffffffffffffffffffffffffffff021916908373ffffffffffffffffffffffffffffffffffffffff1602179055508173ffffffffffffffffffffffffffffffffffffffff168173ffffffffffffffffffffffffffffffffffffffff167f8be0079c531659141344cd1fd0a4f28419497f9722a3daafe3b4186f6b6457e060405160405180910390a35050565b828054828255906000526020600020908101928215620002c3579160200282015b82811115620002c25782518260006101000a81548173ffffffffffffffffffffffffffffffffffffffff021916908373ffffffffffffffffffffffffffffffffffffffff1602179055509160200191906001019062000268565b5b509050620002d29190620002d6565b5090565b5b80821115620002f1576000816000905550600101620002d7565b5090565b60006200030c620003068462000465565b6200043c565b905080838252602082019050828560208602820111156200032c57600080fd5b60005b858110156200036057816200034588826200036a565b8452602084019350602083019250506001810190506200032f565b5050509392505050565b6000815190506200037b81620005ff565b92915050565b600082601f8301126200039357600080fd5b8151620003a5848260208601620002f5565b91505092915050565b600060208284031215620003c157600080fd5b600082015167ffffffffffffffff811115620003dc57600080fd5b620003ea8482850162000381565b91505092915050565b60006200040260168362000494565b91506200040f82620005d6565b602082019050919050565b600060208201905081810360008301526200043581620003f3565b9050919050565b6000620004486200045b565b9050620004568282620004e3565b919050565b6000604051905090565b600067ffffffffffffffff82111562000483576200048262000596565b5b602082029050602081019050919050565b600082825260208201905092915050565b6000620004b282620004b9565b9050919050565b600073ffffffffffffffffffffffffffffffffffffffff82169050919050565b6000819050919050565b620004ee82620005c5565b810181811067ffffffffffffffff8211171562000510576200050f62000596565b5b80604052505050565b60006200052682620004d9565b91507fffffffffffffffffffffffffffffffffffffffffffffffffffffffffffffffff8214156200055c576200055b62000567565b5b600182019050919050565b7f4e487b7100000000000000000000000000000000000000000000000000000000600052601160045260246000fd5b7f4e487b7100000000000000000000000000000000000000000000000000000000600052604160045260246000fd5b6000601f19601f8301169050919050565b7f616c6c6f77656420746f6b656e73206973207a65726f00000000000000000000600082015250565b6200060a81620004a5565b81146200061657600080fd5b50565b6134bc80620006296000396000f3fe6080604052600436106100f35760003560e01c8063971074de1161008a578063c6bbd5a711610059578063c6bbd5a714610331578063cbe230c31461035c578063d574ea3d14610399578063f2fde38b146103dc576100f3565b8063971074de1461024f578063aa9a09121461028c578063b49a60bb146102c9578063b5782ae4146102f4576100f3565b80635e5f2e26116100c65780635e5f2e26146101a5578063715018a6146101e2578063735de9f7146101f95780638da5cb5b14610224576100f3565b8063024ece89146100f857806328bada0d146101235780634178617f14610153578063596176161461017c575b600080fd5b34801561010457600080fd5b5061010d610405565b60405161011a9190612bc8565b60405180910390f35b61013d600480360381019061013891906124aa565b610493565b60405161014a9190612dc9565b60405180910390f35b34801561015f57600080fd5b5061017a6004803603810190610175919061241c565b610892565b005b34801561018857600080fd5b506101a3600480360381019061019e9190612529565b610974565b005b3480156101b157600080fd5b506101cc60048036038101906101c79190612529565b610d15565b6040516101d99190612b0e565b60405180910390f35b3480156101ee57600080fd5b506101f7610d54565b005b34801561020557600080fd5b5061020e610ddc565b60405161021b9190612c42565b60405180910390f35b34801561023057600080fd5b50610239610df4565b6040516102469190612b0e565b60405180910390f35b34801561025b57600080fd5b5061027660048036038101906102719190612445565b610e1d565b6040516102839190612dc9565b60405180910390f35b34801561029857600080fd5b506102b360048036038101906102ae919061257b565b610e4e565b6040516102c09190612dc9565b60405180910390f35b3480156102d557600080fd5b506102de610f12565b6040516102eb9190612bea565b60405180910390f35b34801561030057600080fd5b5061031b60048036038101906103169190612529565b611393565b6040516103289190612b0e565b60405180910390f35b34801561033d57600080fd5b506103466113c6565b6040516103539190612c27565b60405180910390f35b34801561036857600080fd5b50610383600480360381019061037e919061241c565b6113de565b6040516103909190612c0c565b60405180910390f35b3480156103a557600080fd5b506103c060048036038101906103bb9190612529565b6113fe565b6040516103d39796959493929190612b29565b60405180910390f35b3480156103e857600080fd5b5061040360048036038101906103fe919061241c565b6114e8565b005b6060600580548060200260200160405190810160405280929190818152602001828054801561048957602002820191906000526020600020905b8160009054906101000a900473ffffffffffffffffffffffffffffffffffffffff1673ffffffffffffffffffffffffffffffffffffffff168152602001906001019080831161043f575b5050505050905090565b60008082116104d7576040517f08c379a00000000000000000000000000000000000000000000000000000000081526004016104ce90612ccd565b60405180910390fd5b6104e0836115e0565b61051f576040517f08c379a000000000000000000000000000000000000000000000000000000000815260040161051690612c8d565b60405180910390fd5b610528836116a8565b610567576040517f08c379a000000000000000000000000000000000000000000000000000000000815260040161055e90612d2d565b60405180910390fd5b6006600081548092919061057a90613163565b9190505590506000600160008381526020019081526020016000209050338160000160006101000a81548173ffffffffffffffffffffffffffffffffffffffff021916908373ffffffffffffffffffffffffffffffffffffffff160217905550818160020181905550848160010190805190602001906105fb929190612099565b5042816003018190555082426106119190612f3e565b816004018190555062015180426106289190612f3e565b816005018190555034816006018190555060005b845181101561075b576000858281518110610680577f4e487b7100000000000000000000000000000000000000000000000000000000600052603260045260246000fd5b60200260200101519050600061069c3483602001516064610e4e565b905060006106ae8360000151836117be565b9050808360400181815250508460070183908060018154018082558091505060019003906000526020600020906003020160009091909190915060008201518160000160006101000a81548173ffffffffffffffffffffffffffffffffffffffff021916908373ffffffffffffffffffffffffffffffffffffffff16021790555060208201518160010155604082015181600201555050505050808061075390613163565b91505061063c565b5061079b6040518060400160405280600e81526020017f636f6e74726163742076616c756500000000000000000000000000000000000081525047611a62565b600260003373ffffffffffffffffffffffffffffffffffffffff1673ffffffffffffffffffffffffffffffffffffffff168152602001908152602001600020829080600181540180825580915050600190039060005260206000200160009091909190915055336003600084815260200190815260200160002060006101000a81548173ffffffffffffffffffffffffffffffffffffffff021916908373ffffffffffffffffffffffffffffffffffffffff1602179055507f38c77530fa61908b1a5919ee7aa9e58b2f3b84d7966e8bb4cbaf6993958b97ab826040516108829190612dc9565b60405180910390a1509392505050565b61089a611afe565b73ffffffffffffffffffffffffffffffffffffffff166108b8610df4565b73ffffffffffffffffffffffffffffffffffffffff161461090e576040517f08c379a000000000000000000000000000000000000000000000000000000000815260040161090590612d4d565b60405180910390fd5b6005819080600181540180825580915050600190039060005260206000200160009091909190916101000a81548173ffffffffffffffffffffffffffffffffffffffff021916908373ffffffffffffffffffffffffffffffffffffffff16021790555050565b803373ffffffffffffffffffffffffffffffffffffffff166003600083815260200190815260200160002060009054906101000a900473ffffffffffffffffffffffffffffffffffffffff1673ffffffffffffffffffffffffffffffffffffffff1614610a16576040517f08c379a0000000000000000000000000000000000000000000000000000000008152600401610a0d90612ced565b60405180910390fd5b60006001600084815260200190815260200160002090506000428260040154101590506000610a4485611b06565b60005b8360070180549050811015610d0d576000846007018281548110610a94577f4e487b7100000000000000000000000000000000000000000000000000000000600052603260045260246000fd5b90600052602060002090600302016040518060600160405290816000820160009054906101000a900473ffffffffffffffffffffffffffffffffffffffff1673ffffffffffffffffffffffffffffffffffffffff1673ffffffffffffffffffffffffffffffffffffffff168152602001600182015481526020016002820154815250509050610b2b81600001518260400151611e77565b8315610bf157806000015173ffffffffffffffffffffffffffffffffffffffff1663a9059cbb8660000160009054906101000a900473ffffffffffffffffffffffffffffffffffffffff1683604001516040518363ffffffff1660e01b8152600401610b98929190612b9f565b602060405180830381600087803b158015610bb257600080fd5b505af1158015610bc6573d6000803e3d6000fd5b505050506040513d601f19601f82011682018060405250810190610bea9190612481565b9250610cb9565b806000015173ffffffffffffffffffffffffffffffffffffffff1663a9059cbb8660000160009054906101000a900473ffffffffffffffffffffffffffffffffffffffff1660028460400151610c479190612f94565b6040518363ffffffff1660e01b8152600401610c64929190612b9f565b602060405180830381600087803b158015610c7e57600080fd5b505af1158015610c92573d6000803e3d6000fd5b505050506040513d601f19601f82011682018060405250810190610cb69190612481565b92505b82610cf9576040517f08c379a0000000000000000000000000000000000000000000000000000000008152600401610cf090612d6d565b60405180910390fd5b508080610d0590613163565b915050610a47565b505050505050565b60058181548110610d2557600080fd5b906000526020600020016000915054906101000a900473ffffffffffffffffffffffffffffffffffffffff1681565b610d5c611afe565b73ffffffffffffffffffffffffffffffffffffffff16610d7a610df4565b73ffffffffffffffffffffffffffffffffffffffff1614610dd0576040517f08c379a0000000000000000000000000000000000000000000000000000000008152600401610dc790612d4d565b60405180910390fd5b610dda6000611f13565b565b73e592427a0aece92de3edee1f18e0157c0586156481565b60008060009054906101000a900473ffffffffffffffffffffffffffffffffffffffff16905090565b60026020528160005260406000208181548110610e3957600080fd5b90600052602060002001600091509150505481565b600081831415610e6057839050610f0b565b60008285610e6e9190612f94565b905060008386610e7e91906131ac565b905060008486610e8e9190612f94565b905060008587610e9e91906131ac565b9050858184610ead9190612fc5565b610eb79190612f94565b8284610ec39190612fc5565b8286610ecf9190612fc5565b888688610edc9190612fc5565b610ee69190612fc5565b610ef09190612f3e565b610efa9190612f3e565b610f049190612f3e565b9450505050505b9392505050565b60606000600260003373ffffffffffffffffffffffffffffffffffffffff1673ffffffffffffffffffffffffffffffffffffffff1681526020019081526020016000208054905067ffffffffffffffff811115610f98577f4e487b7100000000000000000000000000000000000000000000000000000000600052604160045260246000fd5b604051908082528060200260200182016040528015610fd157816020015b610fbe61211f565b815260200190600190039081610fb65790505b50905060005b600260003373ffffffffffffffffffffffffffffffffffffffff1673ffffffffffffffffffffffffffffffffffffffff1681526020019081526020016000208054905081101561138b576110ab600260003373ffffffffffffffffffffffffffffffffffffffff1673ffffffffffffffffffffffffffffffffffffffff168152602001908152602001600020828154811061109b577f4e487b7100000000000000000000000000000000000000000000000000000000600052603260045260246000fd5b9060005260206000200154611fd7565b600060016000600260003373ffffffffffffffffffffffffffffffffffffffff1673ffffffffffffffffffffffffffffffffffffffff1681526020019081526020016000208481548110611128577f4e487b7100000000000000000000000000000000000000000000000000000000600052603260045260246000fd5b90600052602060002001548152602001908152602001600020905080604051806101000160405290816000820160009054906101000a900473ffffffffffffffffffffffffffffffffffffffff1673ffffffffffffffffffffffffffffffffffffffff1673ffffffffffffffffffffffffffffffffffffffff1681526020016001820180546111b690613100565b80601f01602080910402602001604051908101604052809291908181526020018280546111e290613100565b801561122f5780601f106112045761010080835404028352916020019161122f565b820191906000526020600020905b81548152906001019060200180831161121257829003601f168201915b50505050508152602001600282015481526020016003820154815260200160048201548152602001600582015481526020016006820154815260200160078201805480602002602001604051908101604052809291908181526020016000905b8282101561132b57838290600052602060002090600302016040518060600160405290816000820160009054906101000a900473ffffffffffffffffffffffffffffffffffffffff1673ffffffffffffffffffffffffffffffffffffffff1673ffffffffffffffffffffffffffffffffffffffff168152602001600182015481526020016002820154815250508152602001906001019061128f565b505050508152505083838151811061136c577f4e487b7100000000000000000000000000000000000000000000000000000000600052603260045260246000fd5b602002602001018190525050808061138390613163565b915050610fd7565b508091505090565b60036020528060005260406000206000915054906101000a900473ffffffffffffffffffffffffffffffffffffffff1681565b73b27308f9f90d607463bb33ea1bebb41c27ce5ab681565b60046020528060005260406000206000915054906101000a900460ff1681565b60016020528060005260406000206000915090508060000160009054906101000a900473ffffffffffffffffffffffffffffffffffffffff169080600101805461144790613100565b80601f016020809104026020016040519081016040528092919081815260200182805461147390613100565b80156114c05780601f10611495576101008083540402835291602001916114c0565b820191906000526020600020905b8154815290600101906020018083116114a357829003601f168201915b5050505050908060020154908060030154908060040154908060050154908060060154905087565b6114f0611afe565b73ffffffffffffffffffffffffffffffffffffffff1661150e610df4565b73ffffffffffffffffffffffffffffffffffffffff1614611564576040517f08c379a000000000000000000000000000000000000000000000000000000000815260040161155b90612d4d565b60405180910390fd5b600073ffffffffffffffffffffffffffffffffffffffff168173ffffffffffffffffffffffffffffffffffffffff1614156115d4576040517f08c379a00000000000000000000000000000000000000000000000000000000081526004016115cb90612cad565b60405180910390fd5b6115dd81611f13565b50565b600080825111611625576040517f08c379a000000000000000000000000000000000000000000000000000000000815260040161161c90612d0d565b60405180910390fd5b600080600090505b835181101561169b5783818151811061166f577f4e487b7100000000000000000000000000000000000000000000000000000000600052603260045260246000fd5b602002602001015160200151826116869190612f3e565b9150808061169390613163565b91505061162d565b5060648114915050919050565b6000808251116116ed576040517f08c379a00000000000000000000000000000000000000000000000000000000081526004016116e490612d0d565b60405180910390fd5b60005b82518110156117b357600015156004600085848151811061173a577f4e487b7100000000000000000000000000000000000000000000000000000000600052603260045260246000fd5b60200260200101516000015173ffffffffffffffffffffffffffffffffffffffff1673ffffffffffffffffffffffffffffffffffffffff16815260200190815260200160002060009054906101000a900460ff16151514156117a05760009150506117b9565b80806117ab90613163565b9150506116f0565b50600190505b919050565b6000803411611802576040517f08c379a00000000000000000000000000000000000000000000000000000000081526004016117f990612d8d565b60405180910390fd5b6000600f426118119190612f3e565b9050600073c778417e063141139fce010982780140aa0cd5ab90506000610bb890506000600190506000806040518061010001604052808673ffffffffffffffffffffffffffffffffffffffff1681526020018a73ffffffffffffffffffffffffffffffffffffffff1681526020018562ffffff1681526020013073ffffffffffffffffffffffffffffffffffffffff1681526020018781526020018981526020018481526020018373ffffffffffffffffffffffffffffffffffffffff1681525090506119146040518060400160405280600681526020017f616d6f756e74000000000000000000000000000000000000000000000000000081525089611a62565b73e592427a0aece92de3edee1f18e0157c0586156473ffffffffffffffffffffffffffffffffffffffff1663414bf38989836040518363ffffffff1660e01b81526004016119629190612dad565b6020604051808303818588803b15801561197b57600080fd5b505af115801561198f573d6000803e3d6000fd5b50505050506040513d601f19601f820116820180604052508101906119b49190612552565b96506119bf87611fd7565b60008973ffffffffffffffffffffffffffffffffffffffff166370a08231306040518263ffffffff1660e01b81526004016119fa9190612b0e565b60206040518083038186803b158015611a1257600080fd5b505afa158015611a26573d6000803e3d6000fd5b505050506040513d601f19601f82011682018060405250810190611a4a9190612552565b9050611a5581611fd7565b5050505050505092915050565b611afa8282604051602401611a78929190612c5d565b6040516020818303038152906040527f9710a9d0000000000000000000000000000000000000000000000000000000007bffffffffffffffffffffffffffffffffffffffffffffffffffffffff19166020820180517bffffffffffffffffffffffffffffffffffffffffffffffffffffffff8381831617835250505050612070565b5050565b600033905090565b803373ffffffffffffffffffffffffffffffffffffffff166003600083815260200190815260200160002060009054906101000a900473ffffffffffffffffffffffffffffffffffffffff1673ffffffffffffffffffffffffffffffffffffffff1614611ba8576040517f08c379a0000000000000000000000000000000000000000000000000000000008152600401611b9f90612ced565b60405180910390fd5b60016000838152602001908152602001600020600080820160006101000a81549073ffffffffffffffffffffffffffffffffffffffff0219169055600182016000611bf3919061217a565b60028201600090556003820160009055600482016000905560058201600090556006820160009055600782016000611c2b91906121ba565b50506001600260003373ffffffffffffffffffffffffffffffffffffffff1673ffffffffffffffffffffffffffffffffffffffff168152602001908152602001600020805490501415611cc857600260003373ffffffffffffffffffffffffffffffffffffffff1673ffffffffffffffffffffffffffffffffffffffff1681526020019081526020016000206000611cc391906121de565b611e3d565b60005b600260003373ffffffffffffffffffffffffffffffffffffffff1673ffffffffffffffffffffffffffffffffffffffff16815260200190815260200160002080549050811015611e3b5782600260003373ffffffffffffffffffffffffffffffffffffffff1673ffffffffffffffffffffffffffffffffffffffff1681526020019081526020016000208281548110611d8d577f4e487b7100000000000000000000000000000000000000000000000000000000600052603260045260246000fd5b90600052602060002001541415611e2857600260003373ffffffffffffffffffffffffffffffffffffffff1673ffffffffffffffffffffffffffffffffffffffff1681526020019081526020016000208181548110611e15577f4e487b7100000000000000000000000000000000000000000000000000000000600052603260045260246000fd5b9060005260206000200160009055611e3b565b8080611e3390613163565b915050611ccb565b505b6003600083815260200190815260200160002060006101000a81549073ffffffffffffffffffffffffffffffffffffffff02191690555050565b611f0f8282604051602401611e8d929190612b9f565b6040516020818303038152906040527f2243cfa3000000000000000000000000000000000000000000000000000000007bffffffffffffffffffffffffffffffffffffffffffffffffffffffff19166020820180517bffffffffffffffffffffffffffffffffffffffffffffffffffffffff8381831617835250505050612070565b5050565b60008060009054906101000a900473ffffffffffffffffffffffffffffffffffffffff169050816000806101000a81548173ffffffffffffffffffffffffffffffffffffffff021916908373ffffffffffffffffffffffffffffffffffffffff1602179055508173ffffffffffffffffffffffffffffffffffffffff168173ffffffffffffffffffffffffffffffffffffffff167f8be0079c531659141344cd1fd0a4f28419497f9722a3daafe3b4186f6b6457e060405160405180910390a35050565b61206d81604051602401611feb9190612dc9565b6040516020818303038152906040527ff5b1bba9000000000000000000000000000000000000000000000000000000007bffffffffffffffffffffffffffffffffffffffffffffffffffffffff19166020820180517bffffffffffffffffffffffffffffffffffffffffffffffffffffffff8381831617835250505050612070565b50565b60008151905060006a636f6e736f6c652e6c6f679050602083016000808483855afa5050505050565b8280546120a590613100565b90600052602060002090601f0160209004810192826120c7576000855561210e565b82601f106120e057805160ff191683800117855561210e565b8280016001018555821561210e579182015b8281111561210d5782518255916020019190600101906120f2565b5b50905061211b91906121ff565b5090565b604051806101000160405280600073ffffffffffffffffffffffffffffffffffffffff168152602001606081526020016000815260200160008152602001600081526020016000815260200160008152602001606081525090565b50805461218690613100565b6000825580601f1061219857506121b7565b601f0160209004906000526020600020908101906121b691906121ff565b5b50565b50805460008255600302906000526020600020908101906121db919061221c565b50565b50805460008255906000526020600020908101906121fc91906121ff565b50565b5b80821115612218576000816000905550600101612200565b5090565b5b8082111561226657600080820160006101000a81549073ffffffffffffffffffffffffffffffffffffffff0219169055600182016000905560028201600090555060030161221d565b5090565b600061227d61227884612e09565b612de4565b9050808382526020820190508285606086028201111561229c57600080fd5b60005b858110156122cc57816122b28882612392565b84526020840193506060830192505060018101905061229f565b5050509392505050565b60006122e96122e484612e35565b612de4565b90508281526020810184848401111561230157600080fd5b61230c8482856130be565b509392505050565b60008135905061232381613441565b92915050565b600082601f83011261233a57600080fd5b813561234a84826020860161226a565b91505092915050565b60008151905061236281613458565b92915050565b600082601f83011261237957600080fd5b81356123898482602086016122d6565b91505092915050565b6000606082840312156123a457600080fd5b6123ae6060612de4565b905060006123be84828501612314565b60008301525060206123d2848285016123f2565b60208301525060406123e6848285016123f2565b60408301525092915050565b6000813590506124018161346f565b92915050565b6000815190506124168161346f565b92915050565b60006020828403121561242e57600080fd5b600061243c84828501612314565b91505092915050565b6000806040838503121561245857600080fd5b600061246685828601612314565b9250506020612477858286016123f2565b9150509250929050565b60006020828403121561249357600080fd5b60006124a184828501612353565b91505092915050565b6000806000606084860312156124bf57600080fd5b600084013567ffffffffffffffff8111156124d957600080fd5b6124e586828701612368565b935050602084013567ffffffffffffffff81111561250257600080fd5b61250e86828701612329565b925050604061251f868287016123f2565b9150509250925092565b60006020828403121561253b57600080fd5b6000612549848285016123f2565b91505092915050565b60006020828403121561256457600080fd5b600061257284828501612407565b91505092915050565b60008060006060848603121561259057600080fd5b600061259e868287016123f2565b93505060206125af868287016123f2565b92505060406125c0868287016123f2565b9150509250925092565b60006125d6838361260e565b60208301905092915050565b60006125ee83836129d9565b60608301905092915050565b60006126068383612a1b565b905092915050565b6126178161301f565b82525050565b6126268161301f565b82525050565b600061263782612e96565b6126418185612ee9565b935061264c83612e66565b8060005b8381101561267d57815161266488826125ca565b975061266f83612ec2565b925050600181019050612650565b5085935050505092915050565b600061269582612ea1565b61269f8185612efa565b93506126aa83612e76565b8060005b838110156126db5781516126c288826125e2565b97506126cd83612ecf565b9250506001810190506126ae565b5085935050505092915050565b60006126f382612eac565b6126fd8185612f0b565b93508360208202850161270f85612e86565b8060005b8581101561274b578484038952815161272c85826125fa565b945061273783612edc565b925060208a01995050600181019050612713565b50829750879550505050505092915050565b61276681613031565b82525050565b61277581613076565b82525050565b6127848161309a565b82525050565b600061279582612eb7565b61279f8185612f1c565b93506127af8185602086016130cd565b6127b881613299565b840191505092915050565b60006127ce82612eb7565b6127d88185612f2d565b93506127e88185602086016130cd565b6127f181613299565b840191505092915050565b6000612809601883612f2d565b9150612814826132aa565b602082019050919050565b600061282c602683612f2d565b9150612837826132d3565b604082019050919050565b600061284f601d83612f2d565b915061285a82613322565b602082019050919050565b6000612872601c83612f2d565b915061287d8261334b565b602082019050919050565b6000612895601283612f2d565b91506128a082613374565b602082019050919050565b60006128b8602083612f2d565b91506128c38261339d565b602082019050919050565b60006128db602083612f2d565b91506128e6826133c6565b602082019050919050565b60006128fe600f83612f2d565b9150612909826133ef565b602082019050919050565b6000612921601a83612f2d565b915061292c82613418565b602082019050919050565b6101008201600082015161294e600085018261260e565b506020820151612961602085018261260e565b5060408201516129746040850182612ae1565b506060820151612987606085018261260e565b50608082015161299a6080850182612af0565b5060a08201516129ad60a0850182612af0565b5060c08201516129c060c0850182612af0565b5060e08201516129d360e0850182612ad2565b50505050565b6060820160008201516129ef600085018261260e565b506020820151612a026020850182612af0565b506040820151612a156040850182612af0565b50505050565b600061010083016000830151612a34600086018261260e565b5060208301518482036020860152612a4c828261278a565b9150506040830151612a616040860182612af0565b506060830151612a746060860182612af0565b506080830151612a876080860182612af0565b5060a0830151612a9a60a0860182612af0565b5060c0830151612aad60c0860182612af0565b5060e083015184820360e0860152612ac5828261268a565b9150508091505092915050565b612adb8161303d565b82525050565b612aea8161305d565b82525050565b612af98161306c565b82525050565b612b088161306c565b82525050565b6000602082019050612b23600083018461261d565b92915050565b600060e082019050612b3e600083018a61261d565b8181036020830152612b5081896127c3565b9050612b5f6040830188612aff565b612b6c6060830187612aff565b612b796080830186612aff565b612b8660a0830185612aff565b612b9360c0830184612aff565b98975050505050505050565b6000604082019050612bb4600083018561261d565b612bc16020830184612aff565b9392505050565b60006020820190508181036000830152612be2818461262c565b905092915050565b60006020820190508181036000830152612c0481846126e8565b905092915050565b6000602082019050612c21600083018461275d565b92915050565b6000602082019050612c3c600083018461276c565b92915050565b6000602082019050612c57600083018461277b565b92915050565b60006040820190508181036000830152612c7781856127c3565b9050612c866020830184612aff565b9392505050565b60006020820190508181036000830152612ca6816127fc565b9050919050565b60006020820190508181036000830152612cc68161281f565b9050919050565b60006020820190508181036000830152612ce681612842565b9050919050565b60006020820190508181036000830152612d0681612865565b9050919050565b60006020820190508181036000830152612d2681612888565b9050919050565b60006020820190508181036000830152612d46816128ab565b9050919050565b60006020820190508181036000830152612d66816128ce565b9050919050565b60006020820190508181036000830152612d86816128f1565b9050919050565b60006020820190508181036000830152612da681612914565b9050919050565b600061010082019050612dc36000830184612937565b92915050565b6000602082019050612dde6000830184612aff565b92915050565b6000612dee612dff565b9050612dfa8282613132565b919050565b6000604051905090565b600067ffffffffffffffff821115612e2457612e2361326a565b5b602082029050602081019050919050565b600067ffffffffffffffff821115612e5057612e4f61326a565b5b612e5982613299565b9050602081019050919050565b6000819050602082019050919050565b6000819050602082019050919050565b6000819050602082019050919050565b600081519050919050565b600081519050919050565b600081519050919050565b600081519050919050565b6000602082019050919050565b6000602082019050919050565b6000602082019050919050565b600082825260208201905092915050565b600082825260208201905092915050565b600082825260208201905092915050565b600082825260208201905092915050565b600082825260208201905092915050565b6000612f498261306c565b9150612f548361306c565b9250827fffffffffffffffffffffffffffffffffffffffffffffffffffffffffffffffff03821115612f8957612f886131dd565b5b828201905092915050565b6000612f9f8261306c565b9150612faa8361306c565b925082612fba57612fb961320c565b5b828204905092915050565b6000612fd08261306c565b9150612fdb8361306c565b9250817fffffffffffffffffffffffffffffffffffffffffffffffffffffffffffffffff0483118215151615613014576130136131dd565b5b828202905092915050565b600061302a8261303d565b9050919050565b60008115159050919050565b600073ffffffffffffffffffffffffffffffffffffffff82169050919050565b600062ffffff82169050919050565b6000819050919050565b600061308182613088565b9050919050565b60006130938261303d565b9050919050565b60006130a5826130ac565b9050919050565b60006130b78261303d565b9050919050565b82818337600083830152505050565b60005b838110156130eb5780820151818401526020810190506130d0565b838111156130fa576000848401525b50505050565b6000600282049050600182168061311857607f821691505b6020821081141561312c5761312b61323b565b5b50919050565b61313b82613299565b810181811067ffffffffffffffff8211171561315a5761315961326a565b5b80604052505050565b600061316e8261306c565b91507fffffffffffffffffffffffffffffffffffffffffffffffffffffffffffffffff8214156131a1576131a06131dd565b5b600182019050919050565b60006131b78261306c565b91506131c28361306c565b9250826131d2576131d161320c565b5b828206905092915050565b7f4e487b7100000000000000000000000000000000000000000000000000000000600052601160045260246000fd5b7f4e487b7100000000000000000000000000000000000000000000000000000000600052601260045260246000fd5b7f4e487b7100000000000000000000000000000000000000000000000000000000600052602260045260246000fd5b7f4e487b7100000000000000000000000000000000000000000000000000000000600052604160045260246000fd5b6000601f19601f8301169050919050565b7f726174696f73206e65656420746f20657175616c203130300000000000000000600082015250565b7f4f776e61626c653a206e6577206f776e657220697320746865207a65726f206160008201527f6464726573730000000000000000000000000000000000000000000000000000602082015250565b7f6465706f7369742074696d65206d75737420626520706f736974697665000000600082015250565b7f6f6e6c79207374726174656779206f776e65722063616e2066756e6400000000600082015250565b7f726174696f73206c656e67746820697320300000000000000000000000000000600082015250565b7f737472617420636f6e7461696e73206e6f7420616c6c6f77656420746f6b656e600082015250565b7f4f776e61626c653a2063616c6c6572206973206e6f7420746865206f776e6572600082015250565b7f7472616e73666572206661696c65640000000000000000000000000000000000600082015250565b7f4d7573742070617373206e6f6e20302045544820616d6f756e74000000000000600082015250565b61344a8161301f565b811461345557600080fd5b50565b61346181613031565b811461346c57600080fd5b50565b6134788161306c565b811461348357600080fd5b5056fea26469706673582212201393bf4d0fc13adfc53ed335650cab73aac80b72db41153e09c2b0c90ac9505d64736f6c63430008040033",
  "linkReferences": {},
  "deployedLinkReferences": {}
}