{
  "_format": "hh-sol-artifact-1",
  "contractName": "HodlBank",
  "sourceName": "contracts/HodlBank.sol",
  "abi": [
    {
      "inputs": [
        {
          "internalType": "address[]",
          "name": "_allowedTokens",
          "type": "address[]"
        }
      ],
      "stateMutability": "nonpayable",
      "type": "constructor"
    },
    {
      "anonymous": false,
      "inputs": [
        {
          "indexed": true,
          "internalType": "address",
          "name": "previousOwner",
          "type": "address"
        },
        {
          "indexed": true,
          "internalType": "address",
          "name": "newOwner",
          "type": "address"
        }
      ],
      "name": "OwnershipTransferred",
      "type": "event"
    },
    {
      "anonymous": false,
      "inputs": [
        {
          "indexed": false,
          "internalType": "uint256",
          "name": "_strategyId",
          "type": "uint256"
        },
        {
          "indexed": false,
          "internalType": "address",
          "name": "strategyOwner",
          "type": "address"
        }
      ],
      "name": "StrategyDeployed",
      "type": "event"
    },
    {
      "anonymous": false,
      "inputs": [
        {
          "indexed": false,
          "internalType": "uint256",
          "name": "_strategyId",
          "type": "uint256"
        },
        {
          "indexed": false,
          "internalType": "address",
          "name": "strategyOwner",
          "type": "address"
        }
      ],
      "name": "StrategyWithdrawal",
      "type": "event"
    },
    {
      "inputs": [
        {
          "internalType": "address",
          "name": "_tokenAddr",
          "type": "address"
        }
      ],
      "name": "addAllowedToken",
      "outputs": [],
      "stateMutability": "nonpayable",
      "type": "function"
    },
    {
      "inputs": [
        {
          "internalType": "uint256",
          "name": "",
          "type": "uint256"
        }
      ],
      "name": "allowedTokens",
      "outputs": [
        {
          "internalType": "address",
          "name": "",
          "type": "address"
        }
      ],
      "stateMutability": "view",
      "type": "function"
    },
    {
      "inputs": [
        {
          "internalType": "string",
          "name": "_name",
          "type": "string"
        },
        {
          "components": [
            {
              "internalType": "address",
              "name": "token",
              "type": "address"
            },
            {
              "internalType": "uint256",
              "name": "ratio",
              "type": "uint256"
            },
            {
              "internalType": "uint256",
              "name": "value",
              "type": "uint256"
            }
          ],
          "internalType": "struct HodlBank.StrategyRatio[]",
          "name": "_ratios",
          "type": "tuple[]"
        },
        {
          "internalType": "uint256",
          "name": "_depositTime",
          "type": "uint256"
        }
      ],
      "name": "deployStrategy",
      "outputs": [
        {
          "internalType": "uint256",
          "name": "strategyId",
          "type": "uint256"
        }
      ],
      "stateMutability": "payable",
      "type": "function"
    },
    {
      "inputs": [],
      "name": "getAllowedTokens",
      "outputs": [
        {
          "internalType": "address[]",
          "name": "",
          "type": "address[]"
        }
      ],
      "stateMutability": "view",
      "type": "function"
    },
    {
      "inputs": [],
      "name": "getStrategies",
      "outputs": [
        {
          "components": [
            {
              "internalType": "address",
              "name": "owner",
              "type": "address"
            },
            {
              "internalType": "string",
              "name": "name",
              "type": "string"
            },
            {
              "internalType": "uint256",
              "name": "strategyId",
              "type": "uint256"
            },
            {
              "internalType": "uint256",
              "name": "createdOn",
              "type": "uint256"
            },
            {
              "internalType": "uint256",
              "name": "dueOn",
              "type": "uint256"
            },
            {
              "internalType": "uint256",
              "name": "initialAmount",
              "type": "uint256"
            },
            {
              "internalType": "bool",
              "name": "active",
              "type": "bool"
            },
            {
              "components": [
                {
                  "internalType": "address",
                  "name": "token",
                  "type": "address"
                },
                {
                  "internalType": "uint256",
                  "name": "ratio",
                  "type": "uint256"
                },
                {
                  "internalType": "uint256",
                  "name": "value",
                  "type": "uint256"
                }
              ],
              "internalType": "struct HodlBank.StrategyRatio[]",
              "name": "ratios",
              "type": "tuple[]"
            }
          ],
          "internalType": "struct HodlBank.Strategy[]",
          "name": "",
          "type": "tuple[]"
        }
      ],
      "stateMutability": "view",
      "type": "function"
    },
    {
      "inputs": [],
      "name": "hbnkToken",
      "outputs": [
        {
          "internalType": "address",
          "name": "",
          "type": "address"
        }
      ],
      "stateMutability": "view",
      "type": "function"
    },
    {
      "inputs": [
        {
          "internalType": "address",
          "name": "",
          "type": "address"
        }
      ],
      "name": "isAllowedToken",
      "outputs": [
        {
          "internalType": "bool",
          "name": "",
          "type": "bool"
        }
      ],
      "stateMutability": "view",
      "type": "function"
    },
    {
      "inputs": [
        {
          "internalType": "uint256",
          "name": "x",
          "type": "uint256"
        },
        {
          "internalType": "uint256",
          "name": "y",
          "type": "uint256"
        },
        {
          "internalType": "uint256",
          "name": "z",
          "type": "uint256"
        }
      ],
      "name": "mulDiv",
      "outputs": [
        {
          "internalType": "uint256",
          "name": "",
          "type": "uint256"
        }
      ],
      "stateMutability": "pure",
      "type": "function"
    },
    {
      "inputs": [],
      "name": "owner",
      "outputs": [
        {
          "internalType": "address",
          "name": "",
          "type": "address"
        }
      ],
      "stateMutability": "view",
      "type": "function"
    },
    {
      "inputs": [
        {
          "internalType": "address",
          "name": "",
          "type": "address"
        },
        {
          "internalType": "uint256",
          "name": "",
          "type": "uint256"
        }
      ],
      "name": "ownerToStrategy",
      "outputs": [
        {
          "internalType": "uint256",
          "name": "",
          "type": "uint256"
        }
      ],
      "stateMutability": "view",
      "type": "function"
    },
    {
      "inputs": [],
      "name": "quoter",
      "outputs": [
        {
          "internalType": "contract IQuoter",
          "name": "",
          "type": "address"
        }
      ],
      "stateMutability": "view",
      "type": "function"
    },
    {
      "inputs": [],
      "name": "renounceOwnership",
      "outputs": [],
      "stateMutability": "nonpayable",
      "type": "function"
    },
    {
      "inputs": [
        {
          "internalType": "address",
          "name": "_tokenAddress",
          "type": "address"
        }
      ],
      "name": "setHbnkTokenAddress",
      "outputs": [],
      "stateMutability": "nonpayable",
      "type": "function"
    },
    {
      "inputs": [
        {
          "internalType": "uint256",
          "name": "",
          "type": "uint256"
        }
      ],
      "name": "strategies",
      "outputs": [
        {
          "internalType": "address",
          "name": "owner",
          "type": "address"
        },
        {
          "internalType": "string",
          "name": "name",
          "type": "string"
        },
        {
          "internalType": "uint256",
          "name": "strategyId",
          "type": "uint256"
        },
        {
          "internalType": "uint256",
          "name": "createdOn",
          "type": "uint256"
        },
        {
          "internalType": "uint256",
          "name": "dueOn",
          "type": "uint256"
        },
        {
          "internalType": "uint256",
          "name": "initialAmount",
          "type": "uint256"
        },
        {
          "internalType": "bool",
          "name": "active",
          "type": "bool"
        }
      ],
      "stateMutability": "view",
      "type": "function"
    },
    {
      "inputs": [
        {
          "internalType": "uint256",
          "name": "",
          "type": "uint256"
        }
      ],
      "name": "strategyToOwner",
      "outputs": [
        {
          "internalType": "address",
          "name": "",
          "type": "address"
        }
      ],
      "stateMutability": "view",
      "type": "function"
    },
    {
      "inputs": [
        {
          "internalType": "address",
          "name": "newOwner",
          "type": "address"
        }
      ],
      "name": "transferOwnership",
      "outputs": [],
      "stateMutability": "nonpayable",
      "type": "function"
    },
    {
      "inputs": [],
      "name": "uniswapRouter",
      "outputs": [
        {
          "internalType": "contract IUniswapRouter",
          "name": "",
          "type": "address"
        }
      ],
      "stateMutability": "view",
      "type": "function"
    },
    {
      "inputs": [
        {
          "internalType": "uint256",
          "name": "_strategyId",
          "type": "uint256"
        }
      ],
      "name": "withdrawStrategy",
      "outputs": [],
      "stateMutability": "nonpayable",
      "type": "function"
    }
  ],
  "bytecode": "0x60806040523480156200001157600080fd5b506040516200409c3803806200409c8339818101604052810190620000379190620003ae565b620000576200004b6200017b60201b60201c565b6200018360201b60201c565b60008151116200009e576040517f08c379a000000000000000000000000000000000000000000000000000000000815260040162000095906200041a565b60405180910390fd5b8060059080519060200190620000b692919062000247565b5060005b8151811015620001735760016004600084848151811062000104577f4e487b7100000000000000000000000000000000000000000000000000000000600052603260045260246000fd5b602002602001015173ffffffffffffffffffffffffffffffffffffffff1673ffffffffffffffffffffffffffffffffffffffff16815260200190815260200160002060006101000a81548160ff02191690831515021790555080806200016a9062000519565b915050620000ba565b505062000619565b600033905090565b60008060009054906101000a900473ffffffffffffffffffffffffffffffffffffffff169050816000806101000a81548173ffffffffffffffffffffffffffffffffffffffff021916908373ffffffffffffffffffffffffffffffffffffffff1602179055508173ffffffffffffffffffffffffffffffffffffffff168173ffffffffffffffffffffffffffffffffffffffff167f8be0079c531659141344cd1fd0a4f28419497f9722a3daafe3b4186f6b6457e060405160405180910390a35050565b828054828255906000526020600020908101928215620002c3579160200282015b82811115620002c25782518260006101000a81548173ffffffffffffffffffffffffffffffffffffffff021916908373ffffffffffffffffffffffffffffffffffffffff1602179055509160200191906001019062000268565b5b509050620002d29190620002d6565b5090565b5b80821115620002f1576000816000905550600101620002d7565b5090565b60006200030c620003068462000465565b6200043c565b905080838252602082019050828560208602820111156200032c57600080fd5b60005b858110156200036057816200034588826200036a565b8452602084019350602083019250506001810190506200032f565b5050509392505050565b6000815190506200037b81620005ff565b92915050565b600082601f8301126200039357600080fd5b8151620003a5848260208601620002f5565b91505092915050565b600060208284031215620003c157600080fd5b600082015167ffffffffffffffff811115620003dc57600080fd5b620003ea8482850162000381565b91505092915050565b60006200040260168362000494565b91506200040f82620005d6565b602082019050919050565b600060208201905081810360008301526200043581620003f3565b9050919050565b6000620004486200045b565b9050620004568282620004e3565b919050565b6000604051905090565b600067ffffffffffffffff82111562000483576200048262000596565b5b602082029050602081019050919050565b600082825260208201905092915050565b6000620004b282620004b9565b9050919050565b600073ffffffffffffffffffffffffffffffffffffffff82169050919050565b6000819050919050565b620004ee82620005c5565b810181811067ffffffffffffffff8211171562000510576200050f62000596565b5b80604052505050565b60006200052682620004d9565b91507fffffffffffffffffffffffffffffffffffffffffffffffffffffffffffffffff8214156200055c576200055b62000567565b5b600182019050919050565b7f4e487b7100000000000000000000000000000000000000000000000000000000600052601160045260246000fd5b7f4e487b7100000000000000000000000000000000000000000000000000000000600052604160045260246000fd5b6000601f19601f8301169050919050565b7f616c6c6f77656420746f6b656e73206973207a65726f00000000000000000000600082015250565b6200060a81620004a5565b81146200061657600080fd5b50565b613a7380620006296000396000f3fe6080604052600436106101095760003560e01c8063971074de11610095578063c6bbd5a711610064578063c6bbd5a714610372578063cbe230c31461039d578063d4b39ad6146103da578063d574ea3d14610403578063f2fde38b1461044657610109565b8063971074de14610290578063aa9a0912146102cd578063b49a60bb1461030a578063b5782ae41461033557610109565b80635e5f2e26116100dc5780635e5f2e26146101bb578063715018a6146101f8578063735de9f71461020f57806384cee27a1461023a5780638da5cb5b1461026557610109565b8063024ece891461010e57806328bada0d146101395780634178617f146101695780635961761614610192575b600080fd5b34801561011a57600080fd5b5061012361046f565b6040516101309190613060565b60405180910390f35b610153600480360381019061014e91906128ed565b6104fd565b60405161016091906132d1565b60405180910390f35b34801561017557600080fd5b50610190600480360381019061018b919061285f565b610904565b005b34801561019e57600080fd5b506101b960048036038101906101b4919061296c565b6109e6565b005b3480156101c757600080fd5b506101e260048036038101906101dd919061296c565b610e5f565b6040516101ef9190612fa6565b60405180910390f35b34801561020457600080fd5b5061020d610e9e565b005b34801561021b57600080fd5b50610224610f26565b60405161023191906130da565b60405180910390f35b34801561024657600080fd5b5061024f610f3e565b60405161025c9190612fa6565b60405180910390f35b34801561027157600080fd5b5061027a610f64565b6040516102879190612fa6565b60405180910390f35b34801561029c57600080fd5b506102b760048036038101906102b29190612888565b610f8d565b6040516102c491906132d1565b60405180910390f35b3480156102d957600080fd5b506102f460048036038101906102ef91906129be565b610fbe565b60405161030191906132d1565b60405180910390f35b34801561031657600080fd5b5061031f611082565b60405161032c9190613082565b60405180910390f35b34801561034157600080fd5b5061035c6004803603810190610357919061296c565b611533565b6040516103699190612fa6565b60405180910390f35b34801561037e57600080fd5b50610387611566565b60405161039491906130bf565b60405180910390f35b3480156103a957600080fd5b506103c460048036038101906103bf919061285f565b61157e565b6040516103d191906130a4565b60405180910390f35b3480156103e657600080fd5b5061040160048036038101906103fc919061285f565b61159e565b005b34801561040f57600080fd5b5061042a6004803603810190610425919061296c565b61165e565b60405161043d9796959493929190612fc1565b60405180910390f35b34801561045257600080fd5b5061046d6004803603810190610468919061285f565b611755565b005b606060058054806020026020016040519081016040528092919081815260200182805480156104f357602002820191906000526020600020905b8160009054906101000a900473ffffffffffffffffffffffffffffffffffffffff1673ffffffffffffffffffffffffffffffffffffffff16815260200190600101908083116104a9575b5050505050905090565b6000808211610541576040517f08c379a000000000000000000000000000000000000000000000000000000000815260040161053890613195565b60405180910390fd5b61054a8361184d565b610589576040517f08c379a000000000000000000000000000000000000000000000000000000000815260040161058090613155565b60405180910390fd5b61059283611915565b6105d1576040517f08c379a00000000000000000000000000000000000000000000000000000000081526004016105c8906131f5565b60405180910390fd5b600760008154809291906105e4906136c8565b9190505590506000600160008381526020019081526020016000209050338160000160006101000a81548173ffffffffffffffffffffffffffffffffffffffff021916908373ffffffffffffffffffffffffffffffffffffffff1602179055508181600201819055508481600101908051906020019061066592919061258c565b50428160030181905550824261067b919061346f565b816004018190555034816005018190555060018160060160006101000a81548160ff02191690831515021790555060005b84518110156107cb5760008582815181106106f0577f4e487b7100000000000000000000000000000000000000000000000000000000600052603260045260246000fd5b60200260200101519050600061070c3483602001516064610fbe565b9050600061071e836000015183611a2b565b9050808360400181815250508460070183908060018154018082558091505060019003906000526020600020906003020160009091909190915060008201518160000160006101000a81548173ffffffffffffffffffffffffffffffffffffffff021916908373ffffffffffffffffffffffffffffffffffffffff1602179055506020820151816001015560408201518160020155505050505080806107c3906136c8565b9150506106ac565b5061080b6040518060400160405280600e81526020017f636f6e74726163742076616c756500000000000000000000000000000000000081525047611bf0565b600260003373ffffffffffffffffffffffffffffffffffffffff1673ffffffffffffffffffffffffffffffffffffffff168152602001908152602001600020829080600181540180825580915050600190039060005260206000200160009091909190915055336003600084815260200190815260200160002060006101000a81548173ffffffffffffffffffffffffffffffffffffffff021916908373ffffffffffffffffffffffffffffffffffffffff1602179055507f9690e688b17dc8b66d5c4bcc9e18f8f69abc5cb2edacfed451afa88b1764b0c182336040516108f49291906132ec565b60405180910390a1509392505050565b61090c611c8c565b73ffffffffffffffffffffffffffffffffffffffff1661092a610f64565b73ffffffffffffffffffffffffffffffffffffffff1614610980576040517f08c379a000000000000000000000000000000000000000000000000000000000815260040161097790613215565b60405180910390fd5b6005819080600181540180825580915050600190039060005260206000200160009091909190916101000a81548173ffffffffffffffffffffffffffffffffffffffff021916908373ffffffffffffffffffffffffffffffffffffffff16021790555050565b803373ffffffffffffffffffffffffffffffffffffffff166003600083815260200190815260200160002060009054906101000a900473ffffffffffffffffffffffffffffffffffffffff1673ffffffffffffffffffffffffffffffffffffffff1614610a88576040517f08c379a0000000000000000000000000000000000000000000000000000000008152600401610a7f906131b5565b60405180910390fd5b60006001600084815260200190815260200160002090506000428260040154111590506000610aec6040518060400160405280600681526020017f697320647565000000000000000000000000000000000000000000000000000081525083611c94565b610af585611d30565b600115158215151415610b1657610b148360030154846004015461204b565b505b60005b8360070180549050811015610dfa576000846007018281548110610b66577f4e487b7100000000000000000000000000000000000000000000000000000000600052603260045260246000fd5b90600052602060002090600302016040518060600160405290816000820160009054906101000a900473ffffffffffffffffffffffffffffffffffffffff1673ffffffffffffffffffffffffffffffffffffffff1673ffffffffffffffffffffffffffffffffffffffff168152602001600182015481526020016002820154815250509050610bfd816000015182604001516122b2565b60008160400151905084610c1f5760028260400151610c1c91906134c5565b90505b80826000015173ffffffffffffffffffffffffffffffffffffffff166370a08231306040518263ffffffff1660e01b8152600401610c5d9190612fa6565b60206040518083038186803b158015610c7557600080fd5b505afa158015610c89573d6000803e3d6000fd5b505050506040513d601f19601f82011682018060405250810190610cad9190612995565b1015610cee576040517f08c379a0000000000000000000000000000000000000000000000000000000008152600401610ce590613235565b60405180910390fd5b816000015173ffffffffffffffffffffffffffffffffffffffff1663a9059cbb8760000160009054906101000a900473ffffffffffffffffffffffffffffffffffffffff16836040518363ffffffff1660e01b8152600401610d51929190613037565b602060405180830381600087803b158015610d6b57600080fd5b505af1158015610d7f573d6000803e3d6000fd5b505050506040513d601f19601f82011682018060405250810190610da391906128c4565b935083610de5576040517f08c379a0000000000000000000000000000000000000000000000000000000008152600401610ddc90613255565b60405180910390fd5b50508080610df2906136c8565b915050610b19565b507f39bb2cce248c9a900b42facd5d0b3ba203e1e8e997476bc41eeb28c11f30b846858460000160009054906101000a900473ffffffffffffffffffffffffffffffffffffffff16604051610e509291906132ec565b60405180910390a15050505050565b60058181548110610e6f57600080fd5b906000526020600020016000915054906101000a900473ffffffffffffffffffffffffffffffffffffffff1681565b610ea6611c8c565b73ffffffffffffffffffffffffffffffffffffffff16610ec4610f64565b73ffffffffffffffffffffffffffffffffffffffff1614610f1a576040517f08c379a0000000000000000000000000000000000000000000000000000000008152600401610f1190613215565b60405180910390fd5b610f24600061234e565b565b73e592427a0aece92de3edee1f18e0157c0586156481565b600660009054906101000a900473ffffffffffffffffffffffffffffffffffffffff1681565b60008060009054906101000a900473ffffffffffffffffffffffffffffffffffffffff16905090565b60026020528160005260406000208181548110610fa957600080fd5b90600052602060002001600091509150505481565b600081831415610fd05783905061107b565b60008285610fde91906134c5565b905060008386610fee9190613711565b905060008486610ffe91906134c5565b90506000858761100e9190613711565b905085818461101d91906134f6565b61102791906134c5565b828461103391906134f6565b828661103f91906134f6565b88868861104c91906134f6565b61105691906134f6565b611060919061346f565b61106a919061346f565b611074919061346f565b9450505050505b9392505050565b60606000600260003373ffffffffffffffffffffffffffffffffffffffff1673ffffffffffffffffffffffffffffffffffffffff1681526020019081526020016000208054905067ffffffffffffffff811115611108577f4e487b7100000000000000000000000000000000000000000000000000000000600052604160045260246000fd5b60405190808252806020026020018201604052801561114157816020015b61112e612612565b8152602001906001900390816111265790505b50905060005b600260003373ffffffffffffffffffffffffffffffffffffffff1673ffffffffffffffffffffffffffffffffffffffff1681526020019081526020016000208054905081101561152b5761121b600260003373ffffffffffffffffffffffffffffffffffffffff1673ffffffffffffffffffffffffffffffffffffffff168152602001908152602001600020828154811061120b577f4e487b7100000000000000000000000000000000000000000000000000000000600052603260045260246000fd5b9060005260206000200154612412565b600060016000600260003373ffffffffffffffffffffffffffffffffffffffff1673ffffffffffffffffffffffffffffffffffffffff1681526020019081526020016000208481548110611298577f4e487b7100000000000000000000000000000000000000000000000000000000600052603260045260246000fd5b906000526020600020015481526020019081526020016000209050600115158160060160009054906101000a900460ff16151514156115175780604051806101000160405290816000820160009054906101000a900473ffffffffffffffffffffffffffffffffffffffff1673ffffffffffffffffffffffffffffffffffffffff1673ffffffffffffffffffffffffffffffffffffffff16815260200160018201805461134490613665565b80601f016020809104026020016040519081016040528092919081815260200182805461137090613665565b80156113bd5780601f10611392576101008083540402835291602001916113bd565b820191906000526020600020905b8154815290600101906020018083116113a057829003601f168201915b50505050508152602001600282015481526020016003820154815260200160048201548152602001600582015481526020016006820160009054906101000a900460ff1615151515815260200160078201805480602002602001604051908101604052809291908181526020016000905b828210156114ca57838290600052602060002090600302016040518060600160405290816000820160009054906101000a900473ffffffffffffffffffffffffffffffffffffffff1673ffffffffffffffffffffffffffffffffffffffff1673ffffffffffffffffffffffffffffffffffffffff168152602001600182015481526020016002820154815250508152602001906001019061142e565b505050508152505083838151811061150b577f4e487b7100000000000000000000000000000000000000000000000000000000600052603260045260246000fd5b60200260200101819052505b508080611523906136c8565b915050611147565b508091505090565b60036020528060005260406000206000915054906101000a900473ffffffffffffffffffffffffffffffffffffffff1681565b73b27308f9f90d607463bb33ea1bebb41c27ce5ab681565b60046020528060005260406000206000915054906101000a900460ff1681565b6115a6611c8c565b73ffffffffffffffffffffffffffffffffffffffff166115c4610f64565b73ffffffffffffffffffffffffffffffffffffffff161461161a576040517f08c379a000000000000000000000000000000000000000000000000000000000815260040161161190613215565b60405180910390fd5b80600660006101000a81548173ffffffffffffffffffffffffffffffffffffffff021916908373ffffffffffffffffffffffffffffffffffffffff16021790555050565b60016020528060005260406000206000915090508060000160009054906101000a900473ffffffffffffffffffffffffffffffffffffffff16908060010180546116a790613665565b80601f01602080910402602001604051908101604052809291908181526020018280546116d390613665565b80156117205780601f106116f557610100808354040283529160200191611720565b820191906000526020600020905b81548152906001019060200180831161170357829003601f168201915b5050505050908060020154908060030154908060040154908060050154908060060160009054906101000a900460ff16905087565b61175d611c8c565b73ffffffffffffffffffffffffffffffffffffffff1661177b610f64565b73ffffffffffffffffffffffffffffffffffffffff16146117d1576040517f08c379a00000000000000000000000000000000000000000000000000000000081526004016117c890613215565b60405180910390fd5b600073ffffffffffffffffffffffffffffffffffffffff168173ffffffffffffffffffffffffffffffffffffffff161415611841576040517f08c379a000000000000000000000000000000000000000000000000000000000815260040161183890613175565b60405180910390fd5b61184a8161234e565b50565b600080825111611892576040517f08c379a0000000000000000000000000000000000000000000000000000000008152600401611889906131d5565b60405180910390fd5b600080600090505b8351811015611908578381815181106118dc577f4e487b7100000000000000000000000000000000000000000000000000000000600052603260045260246000fd5b602002602001015160200151826118f3919061346f565b91508080611900906136c8565b91505061189a565b5060648114915050919050565b60008082511161195a576040517f08c379a0000000000000000000000000000000000000000000000000000000008152600401611951906131d5565b60405180910390fd5b60005b8251811015611a205760001515600460008584815181106119a7577f4e487b7100000000000000000000000000000000000000000000000000000000600052603260045260246000fd5b60200260200101516000015173ffffffffffffffffffffffffffffffffffffffff1673ffffffffffffffffffffffffffffffffffffffff16815260200190815260200160002060009054906101000a900460ff1615151415611a0d576000915050611a26565b8080611a18906136c8565b91505061195d565b50600190505b919050565b6000803411611a6f576040517f08c379a0000000000000000000000000000000000000000000000000000000008152600401611a6690613275565b60405180910390fd5b6000600f42611a7e919061346f565b9050600073c778417e063141139fce010982780140aa0cd5ab90506000610bb890506000600190506000806040518061010001604052808673ffffffffffffffffffffffffffffffffffffffff1681526020018a73ffffffffffffffffffffffffffffffffffffffff1681526020018562ffffff1681526020013073ffffffffffffffffffffffffffffffffffffffff1681526020018781526020018981526020018481526020018373ffffffffffffffffffffffffffffffffffffffff16815250905073e592427a0aece92de3edee1f18e0157c0586156473ffffffffffffffffffffffffffffffffffffffff1663414bf38989836040518363ffffffff1660e01b8152600401611b9091906132b5565b6020604051808303818588803b158015611ba957600080fd5b505af1158015611bbd573d6000803e3d6000fd5b50505050506040513d601f19601f82011682018060405250810190611be29190612995565b965050505050505092915050565b611c888282604051602401611c06929190613125565b6040516020818303038152906040527f9710a9d0000000000000000000000000000000000000000000000000000000007bffffffffffffffffffffffffffffffffffffffffffffffffffffffff19166020820180517bffffffffffffffffffffffffffffffffffffffffffffffffffffffff83818316178352505050506124ab565b5050565b600033905090565b611d2c8282604051602401611caa9291906130f5565b6040516020818303038152906040527fc3b55635000000000000000000000000000000000000000000000000000000007bffffffffffffffffffffffffffffffffffffffffffffffffffffffff19166020820180517bffffffffffffffffffffffffffffffffffffffffffffffffffffffff83818316178352505050506124ab565b5050565b803373ffffffffffffffffffffffffffffffffffffffff166003600083815260200190815260200160002060009054906101000a900473ffffffffffffffffffffffffffffffffffffffff1673ffffffffffffffffffffffffffffffffffffffff1614611dd2576040517f08c379a0000000000000000000000000000000000000000000000000000000008152600401611dc9906131b5565b60405180910390fd5b60006001600084815260200190815260200160002060060160006101000a81548160ff0219169083151502179055506001600260003373ffffffffffffffffffffffffffffffffffffffff1673ffffffffffffffffffffffffffffffffffffffff168152602001908152602001600020805490501415611e9c57600260003373ffffffffffffffffffffffffffffffffffffffff1673ffffffffffffffffffffffffffffffffffffffff1681526020019081526020016000206000611e97919061266f565b612011565b60005b600260003373ffffffffffffffffffffffffffffffffffffffff1673ffffffffffffffffffffffffffffffffffffffff1681526020019081526020016000208054905081101561200f5782600260003373ffffffffffffffffffffffffffffffffffffffff1673ffffffffffffffffffffffffffffffffffffffff1681526020019081526020016000208281548110611f61577f4e487b7100000000000000000000000000000000000000000000000000000000600052603260045260246000fd5b90600052602060002001541415611ffc57600260003373ffffffffffffffffffffffffffffffffffffffff1673ffffffffffffffffffffffffffffffffffffffff1681526020019081526020016000208181548110611fe9577f4e487b7100000000000000000000000000000000000000000000000000000000600052603260045260246000fd5b906000526020600020016000905561200f565b8080612007906136c8565b915050611e9f565b505b6003600083815260200190815260200160002060006101000a81549073ffffffffffffffffffffffffffffffffffffffff02191690555050565b60008061205884846124d4565b905061210d600660009054906101000a900473ffffffffffffffffffffffffffffffffffffffff1673ffffffffffffffffffffffffffffffffffffffff166370a08231306040518263ffffffff1660e01b81526004016120b89190612fa6565b60206040518083038186803b1580156120d057600080fd5b505afa1580156120e4573d6000803e3d6000fd5b505050506040513d601f19601f820116820180604052508101906121089190612995565b612412565b80600660009054906101000a900473ffffffffffffffffffffffffffffffffffffffff1673ffffffffffffffffffffffffffffffffffffffff166370a08231306040518263ffffffff1660e01b81526004016121699190612fa6565b60206040518083038186803b15801561218157600080fd5b505afa158015612195573d6000803e3d6000fd5b505050506040513d601f19601f820116820180604052508101906121b99190612995565b10156121fa576040517f08c379a00000000000000000000000000000000000000000000000000000000081526004016121f190613235565b60405180910390fd5b600660009054906101000a900473ffffffffffffffffffffffffffffffffffffffff1673ffffffffffffffffffffffffffffffffffffffff1663a9059cbb33836040518363ffffffff1660e01b8152600401612257929190613037565b602060405180830381600087803b15801561227157600080fd5b505af1158015612285573d6000803e3d6000fd5b505050506040513d601f19601f820116820180604052508101906122a991906128c4565b91505092915050565b61234a82826040516024016122c8929190613037565b6040516020818303038152906040527f2243cfa3000000000000000000000000000000000000000000000000000000007bffffffffffffffffffffffffffffffffffffffffffffffffffffffff19166020820180517bffffffffffffffffffffffffffffffffffffffffffffffffffffffff83818316178352505050506124ab565b5050565b60008060009054906101000a900473ffffffffffffffffffffffffffffffffffffffff169050816000806101000a81548173ffffffffffffffffffffffffffffffffffffffff021916908373ffffffffffffffffffffffffffffffffffffffff1602179055508173ffffffffffffffffffffffffffffffffffffffff168173ffffffffffffffffffffffffffffffffffffffff167f8be0079c531659141344cd1fd0a4f28419497f9722a3daafe3b4186f6b6457e060405160405180910390a35050565b6124a88160405160240161242691906132d1565b6040516020818303038152906040527ff5b1bba9000000000000000000000000000000000000000000000000000000007bffffffffffffffffffffffffffffffffffffffffffffffffffffffff19166020820180517bffffffffffffffffffffffffffffffffffffffffffffffffffffffff83818316178352505050506124ab565b50565b60008151905060006a636f6e736f6c652e6c6f679050602083016000808483855afa5050505050565b6000828211612518576040517f08c379a000000000000000000000000000000000000000000000000000000000815260040161250f90613295565b60405180910390fd5b670de0b6b3a764000061253b84846125309190613550565b600162015180610fbe565b61254591906134f6565b90506125866040518060400160405280600681526020017f726577617264000000000000000000000000000000000000000000000000000081525082611bf0565b92915050565b82805461259890613665565b90600052602060002090601f0160209004810192826125ba5760008555612601565b82601f106125d357805160ff1916838001178555612601565b82800160010185558215612601579182015b828111156126005782518255916020019190600101906125e5565b5b50905061260e9190612690565b5090565b604051806101000160405280600073ffffffffffffffffffffffffffffffffffffffff1681526020016060815260200160008152602001600081526020016000815260200160008152602001600015158152602001606081525090565b508054600082559060005260206000209081019061268d9190612690565b50565b5b808211156126a9576000816000905550600101612691565b5090565b60006126c06126bb8461333a565b613315565b905080838252602082019050828560608602820111156126df57600080fd5b60005b8581101561270f57816126f588826127d5565b8452602084019350606083019250506001810190506126e2565b5050509392505050565b600061272c61272784613366565b613315565b90508281526020810184848401111561274457600080fd5b61274f848285613623565b509392505050565b600081359050612766816139f8565b92915050565b600082601f83011261277d57600080fd5b813561278d8482602086016126ad565b91505092915050565b6000815190506127a581613a0f565b92915050565b600082601f8301126127bc57600080fd5b81356127cc848260208601612719565b91505092915050565b6000606082840312156127e757600080fd5b6127f16060613315565b9050600061280184828501612757565b600083015250602061281584828501612835565b602083015250604061282984828501612835565b60408301525092915050565b60008135905061284481613a26565b92915050565b60008151905061285981613a26565b92915050565b60006020828403121561287157600080fd5b600061287f84828501612757565b91505092915050565b6000806040838503121561289b57600080fd5b60006128a985828601612757565b92505060206128ba85828601612835565b9150509250929050565b6000602082840312156128d657600080fd5b60006128e484828501612796565b91505092915050565b60008060006060848603121561290257600080fd5b600084013567ffffffffffffffff81111561291c57600080fd5b612928868287016127ab565b935050602084013567ffffffffffffffff81111561294557600080fd5b6129518682870161276c565b925050604061296286828701612835565b9150509250925092565b60006020828403121561297e57600080fd5b600061298c84828501612835565b91505092915050565b6000602082840312156129a757600080fd5b60006129b58482850161284a565b91505092915050565b6000806000606084860312156129d357600080fd5b60006129e186828701612835565b93505060206129f286828701612835565b9250506040612a0386828701612835565b9150509250925092565b6000612a198383612a51565b60208301905092915050565b6000612a318383612e71565b60608301905092915050565b6000612a498383612eb3565b905092915050565b612a5a81613584565b82525050565b612a6981613584565b82525050565b6000612a7a826133c7565b612a84818561341a565b9350612a8f83613397565b8060005b83811015612ac0578151612aa78882612a0d565b9750612ab2836133f3565b925050600181019050612a93565b5085935050505092915050565b6000612ad8826133d2565b612ae2818561342b565b9350612aed836133a7565b8060005b83811015612b1e578151612b058882612a25565b9750612b1083613400565b925050600181019050612af1565b5085935050505092915050565b6000612b36826133dd565b612b40818561343c565b935083602082028501612b52856133b7565b8060005b85811015612b8e5784840389528151612b6f8582612a3d565b9450612b7a8361340d565b925060208a01995050600181019050612b56565b50829750879550505050505092915050565b612ba981613596565b82525050565b612bb881613596565b82525050565b612bc7816135db565b82525050565b612bd6816135ff565b82525050565b6000612be7826133e8565b612bf1818561344d565b9350612c01818560208601613632565b612c0a816137fe565b840191505092915050565b6000612c20826133e8565b612c2a818561345e565b9350612c3a818560208601613632565b612c43816137fe565b840191505092915050565b6000612c5b60188361345e565b9150612c668261380f565b602082019050919050565b6000612c7e60268361345e565b9150612c8982613838565b604082019050919050565b6000612ca1601d8361345e565b9150612cac82613887565b602082019050919050565b6000612cc4601c8361345e565b9150612ccf826138b0565b602082019050919050565b6000612ce760128361345e565b9150612cf2826138d9565b602082019050919050565b6000612d0a60208361345e565b9150612d1582613902565b602082019050919050565b6000612d2d60208361345e565b9150612d388261392b565b602082019050919050565b6000612d50600c8361345e565b9150612d5b82613954565b602082019050919050565b6000612d73600f8361345e565b9150612d7e8261397d565b602082019050919050565b6000612d96601a8361345e565b9150612da1826139a6565b602082019050919050565b6000612db9600f8361345e565b9150612dc4826139cf565b602082019050919050565b61010082016000820151612de66000850182612a51565b506020820151612df96020850182612a51565b506040820151612e0c6040850182612f79565b506060820151612e1f6060850182612a51565b506080820151612e326080850182612f88565b5060a0820151612e4560a0850182612f88565b5060c0820151612e5860c0850182612f88565b5060e0820151612e6b60e0850182612f6a565b50505050565b606082016000820151612e876000850182612a51565b506020820151612e9a6020850182612f88565b506040820151612ead6040850182612f88565b50505050565b600061010083016000830151612ecc6000860182612a51565b5060208301518482036020860152612ee48282612bdc565b9150506040830151612ef96040860182612f88565b506060830151612f0c6060860182612f88565b506080830151612f1f6080860182612f88565b5060a0830151612f3260a0860182612f88565b5060c0830151612f4560c0860182612ba0565b5060e083015184820360e0860152612f5d8282612acd565b9150508091505092915050565b612f73816135a2565b82525050565b612f82816135c2565b82525050565b612f91816135d1565b82525050565b612fa0816135d1565b82525050565b6000602082019050612fbb6000830184612a60565b92915050565b600060e082019050612fd6600083018a612a60565b8181036020830152612fe88189612c15565b9050612ff76040830188612f97565b6130046060830187612f97565b6130116080830186612f97565b61301e60a0830185612f97565b61302b60c0830184612baf565b98975050505050505050565b600060408201905061304c6000830185612a60565b6130596020830184612f97565b9392505050565b6000602082019050818103600083015261307a8184612a6f565b905092915050565b6000602082019050818103600083015261309c8184612b2b565b905092915050565b60006020820190506130b96000830184612baf565b92915050565b60006020820190506130d46000830184612bbe565b92915050565b60006020820190506130ef6000830184612bcd565b92915050565b6000604082019050818103600083015261310f8185612c15565b905061311e6020830184612baf565b9392505050565b6000604082019050818103600083015261313f8185612c15565b905061314e6020830184612f97565b9392505050565b6000602082019050818103600083015261316e81612c4e565b9050919050565b6000602082019050818103600083015261318e81612c71565b9050919050565b600060208201905081810360008301526131ae81612c94565b9050919050565b600060208201905081810360008301526131ce81612cb7565b9050919050565b600060208201905081810360008301526131ee81612cda565b9050919050565b6000602082019050818103600083015261320e81612cfd565b9050919050565b6000602082019050818103600083015261322e81612d20565b9050919050565b6000602082019050818103600083015261324e81612d43565b9050919050565b6000602082019050818103600083015261326e81612d66565b9050919050565b6000602082019050818103600083015261328e81612d89565b9050919050565b600060208201905081810360008301526132ae81612dac565b9050919050565b6000610100820190506132cb6000830184612dcf565b92915050565b60006020820190506132e66000830184612f97565b92915050565b60006040820190506133016000830185612f97565b61330e6020830184612a60565b9392505050565b600061331f613330565b905061332b8282613697565b919050565b6000604051905090565b600067ffffffffffffffff821115613355576133546137cf565b5b602082029050602081019050919050565b600067ffffffffffffffff821115613381576133806137cf565b5b61338a826137fe565b9050602081019050919050565b6000819050602082019050919050565b6000819050602082019050919050565b6000819050602082019050919050565b600081519050919050565b600081519050919050565b600081519050919050565b600081519050919050565b6000602082019050919050565b6000602082019050919050565b6000602082019050919050565b600082825260208201905092915050565b600082825260208201905092915050565b600082825260208201905092915050565b600082825260208201905092915050565b600082825260208201905092915050565b600061347a826135d1565b9150613485836135d1565b9250827fffffffffffffffffffffffffffffffffffffffffffffffffffffffffffffffff038211156134ba576134b9613742565b5b828201905092915050565b60006134d0826135d1565b91506134db836135d1565b9250826134eb576134ea613771565b5b828204905092915050565b6000613501826135d1565b915061350c836135d1565b9250817fffffffffffffffffffffffffffffffffffffffffffffffffffffffffffffffff048311821515161561354557613544613742565b5b828202905092915050565b600061355b826135d1565b9150613566836135d1565b92508282101561357957613578613742565b5b828203905092915050565b600061358f826135a2565b9050919050565b60008115159050919050565b600073ffffffffffffffffffffffffffffffffffffffff82169050919050565b600062ffffff82169050919050565b6000819050919050565b60006135e6826135ed565b9050919050565b60006135f8826135a2565b9050919050565b600061360a82613611565b9050919050565b600061361c826135a2565b9050919050565b82818337600083830152505050565b60005b83811015613650578082015181840152602081019050613635565b8381111561365f576000848401525b50505050565b6000600282049050600182168061367d57607f821691505b60208210811415613691576136906137a0565b5b50919050565b6136a0826137fe565b810181811067ffffffffffffffff821117156136bf576136be6137cf565b5b80604052505050565b60006136d3826135d1565b91507fffffffffffffffffffffffffffffffffffffffffffffffffffffffffffffffff82141561370657613705613742565b5b600182019050919050565b600061371c826135d1565b9150613727836135d1565b92508261373757613736613771565b5b828206905092915050565b7f4e487b7100000000000000000000000000000000000000000000000000000000600052601160045260246000fd5b7f4e487b7100000000000000000000000000000000000000000000000000000000600052601260045260246000fd5b7f4e487b7100000000000000000000000000000000000000000000000000000000600052602260045260246000fd5b7f4e487b7100000000000000000000000000000000000000000000000000000000600052604160045260246000fd5b6000601f19601f8301169050919050565b7f726174696f73206e65656420746f20657175616c203130300000000000000000600082015250565b7f4f776e61626c653a206e6577206f776e657220697320746865207a65726f206160008201527f6464726573730000000000000000000000000000000000000000000000000000602082015250565b7f6465706f7369742074696d65206d75737420626520706f736974697665000000600082015250565b7f6f6e6c79207374726174656779206f776e65722063616e2066756e6400000000600082015250565b7f726174696f73206c656e67746820697320300000000000000000000000000000600082015250565b7f737472617420636f6e7461696e73206e6f7420616c6c6f77656420746f6b656e600082015250565b7f4f776e61626c653a2063616c6c6572206973206e6f7420746865206f776e6572600082015250565b7f696e737566662066756e64730000000000000000000000000000000000000000600082015250565b7f7472616e73666572206661696c65640000000000000000000000000000000000600082015250565b7f4d7573742070617373206e6f6e20302045544820616d6f756e74000000000000600082015250565b7f74696d657374616d70206572726f720000000000000000000000000000000000600082015250565b613a0181613584565b8114613a0c57600080fd5b50565b613a1881613596565b8114613a2357600080fd5b50565b613a2f816135d1565b8114613a3a57600080fd5b5056fea2646970667358221220352abb284538a387231258fa58c1dc7bc62751679ab288a47e8942c1ddc8b58864736f6c63430008040033",
  "linkReferences": {},
  "deployedLinkReferences": {}
}